:020000040800F2
:100000003808002015020008190200081B02000829
:100010001D0200081F020008210200080000000065
:1000200000000000000000000000000023020008A3
:10003000250200080000000027020008290200082D
:100040002B0200082B0200082B0200082B020008DC
:100050002B0200082B0200082B0200082B020008CC
:100060002B0200082B0200082B0200082B020008BC
:100070002B0200082B0200082B0200082B020008AC
:100080002B0200082B0200082B0200082B0200089C
:100090002B0200082B0200082B0200082B0200088C
:1000A0002B0200082B0200082B0200082B0200087C
:1000B0002B0200082B0200082B0200082B0200086C
:1000C0002B0200082B0200082B0200082B0200085C
:1000D0002B0200082D0700082B0200082B02000845
:1000E0002B0200082B0200082B0200082B0200083C
:1000F0002B0200082B0200082B0200082B0200082C
:100100002B0200082B0200082B0200082B0200081B
:100110002B0200082B020008010700082B02000830
:100120002B0200082B0200082B0200082B020008FB
:1001300000F002F800F045F80AA090E8000C8244B4
:100140008344AAF10107DA4501D100F03AF8AFF291
:10015000090EBAE80F0013F0010F18BFFB1A43F0A5
:1001600001031847C8730000E8730000103A24BF69
:1001700078C878C1FAD8520724BF30C830C144BF0C
:1001800004680C607047000000230024002500264E
:10019000103A28BF78C1FBD8520728BF30C148BFEA
:1001A0000B607047782900F0E980002070471FB588
:1001B0009DE8030000F04CF900F021F91FBD10B5D7
:1001C00010BD00F028FA1146FFF7F1FF03F048FDDB
:1001D00000F046FA03B4FFF7F2FF03BC00F0E8FAC0
:1001E0000B49D1F800C04A685CF8043B1068184419
:1001F00042F8040B8C4528BFA1F1DC0C8A4228BFD1
:10020000A1F1DC02C1F800C04A6020F00040704754
:10021000CC01002008480047FEE7FEE7FEE7FEE7C6
:10022000FEE7FEE7FEE7FEE7FEE7FEE703480449D8
:10023000044A054B704700003101000838020020D5
:10024000380800203804002038040020704770B5BA
:10025000064600F0E1F8056806F10B0020F00704FF
:10026000B4429CBF002070BD2B466A68BAB11068CA
:10027000A04210D304F1080188423CBF5068586086
:1002800007D35168101941601168091B016058605B
:100290001460101D70BD13465268002AE7D1214634
:1002A000284600F0C1F80028DED170BD70B50446C4
:1002B000051F00F0B1F80068002C14BF446870BD41
:1002C000002C18BFAC423CBF20466468F8D30168DC
:1002D0000A18AA4218BF456003D12A68054611448E
:1002E000016028684119A1421CBF6C6070BD616843
:1002F000696021680844286070BD00000FB404499B
:1003000010B503AA029800F033F910BC5DF814FB95
:10031000040000202DE9F0410E4604460020206232
:100320002046E168884730B3252805D0D4E901216B
:100330009047206A401CF2E7E16820460027884782
:10034000050018D0A5F14100192802D820354FF436
:1003500000673246294620462760FFF723FF40B159
:10036000012804D0F61D26F007060836D8E7361D0A
:10037000D6E72846DAE7206ABDE8F08170B5044682
:100380000D4621461068AFF300802188090502D58B
:100390000F4A7A4402E00E4A7A440E32002104F1F8
:1003A000240305E000F00F060009965D5E54491C29
:1003B0000028F7D120780023000704D5702D02D043
:1003C00009B1022311322046BDE8704000F076B832
:1003D0006E7100000B4910B5A1F17C020A4CC2E914
:1003E0003712372106E000EB104342F82130074B6B
:1003F00000FB03400B1EA1F10101F4DC10BD012044
:10040000E8E700006C010020E119D666CD0D01007F
:10041000704770477047704700487047DC01002004
:10042000704770477047704738B504460A46002049
:100430006946AFF30080002808BF38BD0246009926
:10044000204600F0ABF8012038BD012000F0DCB8F8
:10045000F8B5AFF30080054600200C46102000BF21
:100460000646A819A0420DD9324669460020AFF3CE
:100470000080070008BF00F0C7F80098A04218BF2E
:100480000546C419FFF7C8FF05600746F01D20F0B8
:1004900007004619284600F00AF8B44208BFF8BD24
:1004A000A21B31463868BDE8F84000F077B800215B
:1004B0000160C0E901107047102070472DE9F04736
:1004C0000D4699469246044600F1240801688806C4
:1004D00004D5E06921F01001216000E00120A8426C
:1004E00001DD471B00E00027A1697A1902EB090032
:1004F000081AA0612078C00602D42046AFF300801D
:10050000002608E0D4E901211AF806009047206A85
:10051000401C761C20624E45F4DB2078C0060AD5CC
:100520002046AFF3008006E0D4E901213020904757
:10053000206A401C2062381EA7F10107F4DC07E0A6
:10054000D4E9012118F805009047206A401C206278
:10055000281EA5F10105F3DC2046AFF300802078CA
:10056000000602D50220BDE8F0870120FBE700006D
:10057000074B70B50D467B4400F02FF80446284623
:1005800000F03EF810B14FF0FF3070BD204670BD56
:10059000CF04000000487047D401002003464068A3
:1005A0008C46002818BF88423CBF03464068F8D3F9
:1005B00018681844884207D00CF1030020F00700A7
:1005C000001D411A521A0146081D0A60FFF76EBE4F
:1005D00001694A1C02610878704700B58FB0CDE907
:1005E00001310021059105497944CDE903101146F7
:1005F0006846FFF78FFE0FB000BD0000E5FFFFFF6C
:10060000007B00F08000704710B500F037F8BDE8BF
:10061000104000F02EB87546FFF7BCFFAE4605004F
:100620006946534620F00700854618B020B5FFF70D
:10063000FDFDBDE820404FF000064FF000074FF0F1
:1006400000084FF0000B21F00701AC46ACE8C009F0
:10065000ACE8C009ACE8C009ACE8C0098D467047F9
:1006600010B50446AFF300802046BDE81040FFF708
:10067000B1BD002801D000F09BB8704710B501282B
:1006800005D0002103A000F021F8012010BD09A130
:10069000F8E7000053494752544D454D3A204F75F5
:1006A00074206F662068656170206D656D6F72796A
:1006B000000000003A2048656170206D656D6F7222
:1006C0007920636F727275707465640070B5054649
:1006D0000C460A2000E06D1C00F06CF835B128785B
:1006E0000028F8D102E0641C00F064F814B120780E
:1006F0000028F8D1BDE870400A2000F05BB8000087
:100700000848006900F0010020B107480088401C3B
:10071000054908800348006920F00100014908618B
:100720007047000000100040000000201D490968CB
:1007300001F0200111B31B49091D0968C8B21A490B
:10074000098801F40041C9B91749098801F48041B9
:1007500061B10A2803D00021134A118020E0124918
:10076000098841F40041104A118019E00D2806D192
:100770000D49098841F480410B4A118010E00A4973
:100780000988C1F30D01094A505407490988491CD9
:10079000054A118011460988C72901DD0021118011
:1007A00070470000003801400800002018000020B9
:1007B00000BF704700BF704742688A604268526855
:1007C0004A604268526891604268516070472DE902
:1007D000F04106460F4615460C20FFF738FD04464B
:1007E00025800020608021463046FFF7E5FFBDE808
:1007F000F081000070B505460C4600BF0D48C06989
:1008000040F010000B49C86100BF0B48C56284620C
:10081000C06840F001000849C8600846006840F020
:1008200001000860022336220321012003F07AFC34
:1008300070BD0000001002400010004070B504467A
:10084000206808B1606800B970BD2068856805E05F
:10085000AE682846FFF72AFD354600BF6068A8420B
:10086000F6D1D4E900108860D4E90001486000BFE7
:10087000EAE710B50820FFF7EAFC04460C20FFF772
:10088000E6FC20600C20FFF7E2FC6060002021689D
:100890004860D4E900108860D4E900014860002075
:1008A00061688860204610BD4FF0E021096921F0A1
:1008B00004014FF0E02211610146C21700EB5272B1
:1008C000C2F3CF02014B1A807047000002000020E3
:1008D00070B504464FF47A7094FBF0F594FBF0F198
:1008E00000FB114603E0074800F00EF86D1E002DD6
:1008F000F9D12EB14FF47A7106FB01F000F004F843
:1009000070BD000040420F000146114A12884A4360
:100910004FF0E0235A6100229A611A46126942F0B0
:1009200001021A6100BF4FF0E022106900F00102DD
:100930001AB100F48032002AF5D04FF0E02212699B
:1009400022F001024FF0E0231A6100229A61704701
:100950000200002070B505460C462868A04202D06F
:100960006868A04200D170BDD4E901108860D4E964
:10097000010148602046FFF799FC00BFF3E7000043
:100980002DE9F84F0446884615469B462088404589
:1009900004DB2088A0EB080086B200E00026208857
:1009A00040441FFA80F96088401D1FFA80FA608871
:1009B000052803DB6088401F87B200E00027A8B24B
:1009C0003B46324639460090002000F0DCF9A8B2E0
:1009D00000901C4802883B463946484600F0D3F94F
:1009E000A8B25346324651460090002000F0CBF9A1
:1009F000A8B200901348028853465146484600F07A
:100A0000C2F9A8B25346324639460090304600F04B
:100A1000BAF9A8B253464A4639460090484600F013
:100A2000B2F9F02F0CDCBAF1F00F09DBABF10200E8
:100A3000B04202DB001D484502DD0120BDE8F88F11
:100A40000020FBE7E000002000BF054A126802F02A
:100A50004002002AF9D0C2B2014B1B1D1A60704738
:100A6000003801401CB500BF1848806940F04000C4
:100A70001649886100BF00BF0846806940F0400009
:100A8000886100BF00BF0846806940F004008861AB
:100A900000BF0120009000231A46102101900C484D
:100AA00003F0CAFA0120009000231A4608210190A1
:100AB000074803F0C1FA0220012100231A46CDE9BC
:100AC0000010044803F0B8FA1CBD000000100240FA
:100AD000001801400008014070B50446002514B11B
:100AE0000120224908702148007848B3102120488D
:100AF00003F08EFA50B108211D4803F089FA28B19D
:100B000001211C4803F084FA012819D10A20FFF7BB
:100B1000DFFE0020154908701021154803F078FA0F
:100B200000B901250821124803F072FA00B9022524
:100B30000121104803F06CFA012815D1032513E0B8
:100B400010210B4803F064FA01280DD10821084850
:100B500003F05EFA012807D10121064803F058FA94
:100B600010B9012001490870284670BD140000200A
:100B7000001801400008014070B5044600260948ED
:100B80000588408845430021084602F019FE03F01D
:100B900021F800BF02E004480480761CAE42FAD37C
:100BA00070BD0000E00000200008006C10B5044695
:100BB00049488471002C45D1F020474908804FF402
:100BC000A07048800846808845F21051884210D1B4
:100BD0004FF43050404908814FF4285048814FF479
:100BE0002C5088814FF4F07008804FF44870488092
:100BF0001AE03948808841F6631188420DD12C20D3
:100C0000354908812B2048812A2088814FF4F070D3
:100C100008804FF44870488006E02C202E49088157
:100C20002A2048812B2088812B48808845F210316A
:100C300088424CD14FF4A070274908804FF4F070DF
:100C4000488044E04FF4A07023490880F020488099
:100C50000846808845F21051884210D14FF4305038
:100C60001D4908814FF4285048814FF42C50888149
:100C70004FF4487008804FF4F07048801AE016482E
:100C8000808841F6631188420DD12C2012490881D9
:100C90002A2048812B2088814FF4487008804FF427
:100CA000F070488006E02C200B4908812A204881FA
:100CB0002B2088810848808845F21031884206D16F
:100CC0004FF4F070044908804FF4A0704880002071
:100CD00002F05EFC10BD0000E00000202DE9F047AE
:100CE00006460F4690469A46002445460320A0EB50
:100CF000480944E07A1B91B2321990B2524600F092
:100D000099F83A1B91B2721990B2524600F092F8DB
:100D10003A1991B2721990B2524600F08BF87A19D2
:100D200091B2321990B2524600F084F87A1991B219
:100D3000321B90B2524600F07DF83A1991B2721B04
:100D400090B2524600F076F87A1B91B2321B90B204
:100D5000524600F06FF83A1B91B2721B90B25246A5
:100D600000F068F8641CB9F1000F03DAA000801DE0
:100D7000814404E0601B80000A3081446D1EAC4257
:100D8000B8DDBDE8F0872DE9FF4F84B081468A4683
:100D90000020029083460698A0EB09050798A0EB77
:100DA0000A06CDF80490CDF800A0002D01DD012742
:100DB00005E00DB9002702E04FF0FF376D42002E2D
:100DC00002DD4FF0010806E016B94FF0000802E01E
:100DD0004FF0FF387642B54201DD2C4600E0344644
:100DE000002003901EE0009A91B2019A90B2119AED
:100DF00000F020F8029828440290B3440298A042E0
:100E000005DD0298001B0290019838440190A3452B
:100E100004DDABEB040B0098404400900398401CA9
:100E200080B20390611C03988842DCDD08B0BDE805
:100E3000F08F000070B505460E4614463146284630
:100E400002F0BEFC02F0C6FE01490C8070BD00003D
:100E50000008006C10B5CF2002F0B0FE002002F0B8
:100E6000A1FEC12002F09EFE302002F09BFEED208C
:100E700002F0A4FE642002F095FE032002F092FE30
:100E8000122002F08FFE812002F08CFEE82002F09A
:100E900095FE852002F086FE102002F083FE7A2067
:100EA00002F080FECB2002F089FE392002F07AFEAB
:100EB0002C2002F077FE002002F074FE342002F0B5
:100EC00071FE022002F06EFEF72002F077FE202075
:100ED00002F068FEEA2002F071FE002002F062FEDD
:100EE000002002F05FFEC02002F068FE1B2002F02E
:100EF00059FEC12002F062FE012002F053FEC5201F
:100F000002F05CFE302002F04DFE302002F04AFE7E
:100F1000C72002F053FEB72002F044FE362002F054
:100F20004DFE482002F03EFE3A2002F047FE5520DA
:100F300002F038FEB12002F041FE002002F032FE45
:100F40001A2002F02FFEB62002F038FE0A2002F02E
:100F500029FEA22002F026FEF22002F02FFE002041
:100F600002F020FE262002F029FE012002F01AFEE7
:100F7000E02002F023FE0F2002F014FE2A2002F0EF
:100F800011FE282002F00EFE082002F00BFE0E20BB
:100F900002F008FE082002F005FE542002F002FED6
:100FA000A92002F0FFFD432002F0FCFD0A2002F020
:100FB000F9FD0F2002F0F6FD002002F0F3FD002005
:100FC00002F0F0FD002002F0EDFD002002F0EAFD4D
:100FD000E12002F0F3FD002002F0E4FD152002F014
:100FE000E1FD172002F0DEFD072002F0DBFD1120FD
:100FF00002F0D8FD062002F0D5FD2B2002F0D2FD34
:10100000562002F0CFFD3C2002F0CCFD052002F07E
:10101000C9FD102002F0C6FD0F2002F0C3FD3F20E5
:1010200002F0C0FD3F2002F0BDFD0F2002F0BAFD2E
:101030002B2002F0C3FD002002F0B4FD002002F0DE
:10104000B1FD012002F0AEFD3F2002F0ABFD2A20F1
:1010500002F0B4FD002002F0A5FD002002F0A2FD88
:10106000002002F09FFDEF2002F09CFD112002F015
:10107000A5FD7820FFF72CFC292002F09FFD10BD74
:1010800010B5ED2002F09AFD012002F08BFDFE204C
:1010900002F088FDEE2002F091FDDE2002F082FDDC
:1010A000212002F07FFDF12002F088FD012002F0F6
:1010B00079FDDF2002F082FD102002F073FDC420D4
:1010C00002F07CFD8F2002F06DFDC62002F076FD5F
:1010D000002002F067FDE22002F064FDE22002F051
:1010E00061FDE22002F05EFDBF2002F067FDAA2054
:1010F00002F058FDB02002F061FD0D2002F052FD1B
:10110000002002F04FFD0D2002F04CFD002002F007
:1011100049FD112002F046FD002002F043FD192098
:1011200002F040FD002002F03DFD212002F03AFDDA
:10113000002002F037FD2D2002F034FD002002F0E7
:1011400031FD3D2002F02EFD002002F02BFD5D2040
:1011500002F028FD002002F025FD5D2002F022FDB6
:10116000002002F01FFDB12002F028FD802002F0D7
:1011700019FD002002F016FD8B2002F013FD002067
:1011800002F010FD962002F00DFD002002F00AFD95
:10119000B22002F013FD002002F004FD002002F056
:1011A00001FD022002F0FEFC002002F0FBFC032007
:1011B00002F0F8FC002002F0F5FCB32002F0FEFC87
:1011C000002002F0EFFC002002F0ECFC002002F016
:1011D000E9FC002002F0E6FC002002F0E3FC002025
:1011E00002F0E0FC002002F0DDFC002002F0DAFC5E
:1011F000002002F0D7FC002002F0D4FC002002F016
:10120000D1FC002002F0CEFC002002F0CBFC00203C
:1012100002F0C8FC002002F0C5FC002002F0C2FC75
:10122000002002F0BFFC002002F0BCFC002002F015
:10123000B9FC002002F0B6FC002002F0B3FC002054
:1012400002F0B0FC002002F0ADFC002002F0AAFC8D
:10125000B42002F0B3FC8B2002F0A4FC002002F0CA
:10126000A1FC962002F09EFC002002F09BFCA12035
:1012700002F098FC002002F095FCB52002F09EFCE4
:10128000022002F08FFC002002F08CFC032002F010
:1012900089FC002002F086FC042002F083FC002080
:1012A00002F080FCB62002F089FC002002F07AFCFB
:1012B000002002F077FCB72002F080FC002002F052
:1012C00071FC002002F06EFC3F2002F06BFC00205D
:1012D00002F068FC5E2002F065FC002002F062FC77
:1012E000642002F05FFC002002F05CFC8C2002F025
:1012F00059FC002002F056FCAC2002F053FC002008
:1013000002F050FCDC2002F04DFC002002F04AFC10
:10131000702002F047FC002002F044FC902002F014
:1013200041FC002002F03EFCEB2002F03BFC0020E0
:1013300002F038FCDC2002F035FC002002F032FC28
:10134000B82002F03BFC002002F02CFC002002F050
:1013500029FC002002F026FC002002F023FC0020E3
:1013600002F020FC002002F01DFC002002F01AFC1C
:10137000002002F017FCBA2002F020FC242002F02A
:1013800011FC002002F00EFC002002F00BFC0020FB
:1013900002F008FCC12002F011FC202002F002FC47
:1013A000002002F0FFFB542002F0FCFB002002F0C2
:1013B000F9FBFF2002F0F6FB002002F0F3FBC22055
:1013C00002F0FCFB0A2002F0EDFB002002F0EAFB39
:1013D000042002F0E7FB002002F0E4FBC32002F04F
:1013E000EDFB3C2002F0DEFB002002F0DBFB3A20AC
:1013F00002F0D8FB002002F0D5FB392002F0D2FB2E
:10140000002002F0CFFB372002F0CCFB002002F0DE
:10141000C9FB3C2002F0C6FB002002F0C3FB3620D3
:1014200002F0C0FB002002F0BDFB322002F0BAFB4C
:10143000002002F0B7FB2F2002F0B4FB002002F0E6
:10144000B1FB2C2002F0AEFB002002F0ABFB292008
:1014500002F0A8FB002002F0A5FB262002F0A2FB70
:10146000002002F09FFB242002F09CFB002002F0F1
:1014700099FB242002F096FB002002F093FB23202E
:1014800002F090FB002002F08DFB3C2002F08AFB72
:10149000002002F087FB362002F084FB002002F0DF
:1014A00081FB322002F07EFB002002F07BFB2F202C
:1014B00002F078FB002002F075FB2C2002F072FB9A
:1014C000002002F06FFB292002F06CFB002002F0EC
:1014D00069FB262002F066FB002002F063FB24205B
:1014E00002F060FB002002F05DFB242002F05AFBBA
:1014F000002002F057FB232002F054FB002002F0F2
:1015000051FBC42002F05AFB622002F04BFB00208A
:1015100002F048FB052002F045FB002002F042FBF0
:10152000842002F03FFB002002F03CFBF02002F0A0
:1015300039FB002002F036FB182002F033FB0020BC
:1015400002F030FBA42002F02DFB002002F02AFB69
:10155000182002F027FB002002F024FB502002F0AC
:1015600021FB002002F01EFB0C2002F01BFB0020E0
:1015700002F018FB172002F015FB002002F012FB0E
:10158000952002F00FFB002002F00CFBF32002F08C
:1015900009FB002002F006FBE62002F003FB00201E
:1015A00002F000FBC52002F009FB322002F0FAFA3B
:1015B000002002F0F7FA442002F0F4FA002002F0D2
:1015C000F1FA652002F0EEFA002002F0EBFA762044
:1015D00002F0E8FA002002F0E5FA882002F0E2FAD0
:1015E000002002F0DFFAC62002F0E8FA202002F024
:1015F000D9FA002002F0D6FA172002F0D3FA002020
:1016000002F0D0FA012002F0CDFA002002F0CAFA6E
:10161000C72002F0D3FA002002F0C4FA002002F042
:10162000C1FA002002F0BEFA002002F0BBFAC82086
:1016300002F0C4FA002002F0B5FA002002F0B2FA7B
:10164000002002F0AFFA002002F0ACFAC92002F04C
:10165000B5FA002002F0A6FA002002F0A3FA00205A
:1016600002F0A0FA002002F09DFA002002F09AFA9F
:10167000002002F097FA002002F094FA002002F015
:1016800091FA002002F08EFA002002F08BFA00207E
:1016900002F088FA002002F085FA002002F082FAB7
:1016A000002002F07FFA002002F07CFA002002F015
:1016B00079FAE02002F082FA162002F073FA002094
:1016C00002F070FA1C2002F06DFA002002F06AFAB3
:1016D000212002F067FA002002F064FA362002F0BE
:1016E00061FA002002F05EFA462002F05BFA002068
:1016F00002F058FA522002F055FA002002F052FA95
:10170000642002F04FFA002002F04CFA7A2002F036
:1017100049FA002002F046FA8B2002F043FA00203A
:1017200002F040FA992002F03DFA002002F03AFA65
:10173000A82002F037FA002002F034FAB92002F0B3
:1017400031FA002002F02EFAC42002F02BFA002019
:1017500002F028FACA2002F025FA002002F022FA4C
:10176000D22002F01FFA002002F01CFAD92002F069
:1017700019FA002002F016FAE02002F013FA002015
:1017800002F010FAF32002F00DFA002002F00AFA3B
:10179000E12002F013FA162002F004FA002002F011
:1017A00001FA1C2002F0FEF9002002F0FBF92220D1
:1017B00002F0F8F9002002F0F5F9362002F0F2F913
:1017C000002002F0EFF9452002F0ECF9002002F0D1
:1017D000E9F9522002F0E6F9002002F0E3F9642072
:1017E00002F0E0F9002002F0DDF97A2002F0DAF9E7
:1017F000002002F0D7F98B2002F0D4F9002002F08B
:10180000D1F9992002F0CEF9002002F0CBF9A820FE
:1018100002F0C8F9002002F0C5F9B92002F0C2F9BF
:10182000002002F0BFF9C42002F0BCF9002002F051
:10183000B9F9CA2002F0B6F9002002F0B3F9D220BB
:1018400002F0B0F9002002F0ADF9D82002F0AAF9B8
:10185000002002F0A7F9E02002F0A4F9002002F035
:10186000A1F9F32002F09EF9002002F09BF9E2209A
:1018700002F0A4F9052002F095F9002002F092F997
:101880000B2002F08FF9002002F08CF91B2002F0EF
:1018900089F9002002F086F9342002F083F9002053
:1018A00002F080F9442002F07DF9002002F07AF97C
:1018B0004F2002F077F9002002F074F9612002F065
:1018C00071F9002002F06EF9792002F06BF9002026
:1018D00002F068F9882002F065F9002002F062F950
:1018E000972002F05FF9002002F05CF9A62002F0D8
:1018F00059F9002002F056F9B72002F053F9002000
:1019000002F050F9C22002F04DF9002002F04AF92D
:10191000C72002F047F9002002F044F9D12002F07C
:1019200041F9002002F03EF9D62002F03BF90020F8
:1019300002F038F9DD2002F035F9002002F032F92A
:10194000F32002F02FF9002002F02CF9E32002F03E
:1019500035F9052002F026F9002002F023F90A20CB
:1019600002F020F9002002F01DF91C2002F01AF903
:10197000002002F017F9332002F014F9002002F0E1
:1019800011F9442002F00EF9002002F00BF950206A
:1019900002F008F9002002F005F9622002F002F9D5
:1019A000002002F0FFF8782002F0FCF8002002F09E
:1019B000F9F8882002F0F6F8002002F0F3F89720FA
:1019C00002F0F0F8002002F0EDF8A62002F0EAF8AC
:1019D000002002F0E7F8B72002F0E4F8002002F05F
:1019E000E1F8C22002F0DEF8002002F0DBF8C720A8
:1019F00002F0D8F8002002F0D5F8D12002F0D2F899
:101A0000002002F0CFF8D52002F0CCF8002002F040
:101A1000C9F8DD2002F0C6F8002002F0C3F8F32078
:101A200002F0C0F8002002F0BDF8E42002F0C6F891
:101A3000012002F0B7F8002002F0B4F8012002F013
:101A4000B1F8002002F0AEF8022002F0ABF800205E
:101A500002F0A8F82A2002F0A5F8002002F0A2F86F
:101A60003C2002F09FF8002002F09CF84B2002F08E
:101A700099F8002002F096F85D2002F093F800201B
:101A800002F090F8742002F08DF8002002F08AF83D
:101A9000842002F087F8002002F084F8932002F0FE
:101AA00081F8002002F07EF8A22002F07BF80020EE
:101AB00002F078F8B32002F075F8002002F072F816
:101AC000BE2002F06FF8002002F06CF8C42002F093
:101AD00069F8002002F066F8CD2002F063F80020DB
:101AE00002F060F8D32002F05DF8002002F05AF80E
:101AF000DD2002F057F8002002F054F8F32002F045
:101B000051F8002002F04EF8E52002F057F80020CE
:101B100002F048F8002002F045F8002002F042F8F8
:101B2000002002F03FF8022002F03CF8002002F012
:101B300039F8292002F036F8002002F033F83C2072
:101B400002F030F8002002F02DF84B2002F02AF8C5
:101B5000002002F027F85D2002F024F8002002F0B7
:101B600021F8742002F01EF8002002F01BF88420F7
:101B700002F018F8002002F015F8932002F012F895
:101B8000002002F00FF8A22002F00CF8002002F072
:101B900009F8B32002F006F8002002F003F8BE2096
:101BA00002F000F8002001F0FDFFC42001F0FAFF70
:101BB000002001F0F7FFCD2001F0F4FF002001F03C
:101BC000F1FFD32001F0EEFF002001F0EBFFDC205D
:101BD00001F0E8FF002001F0E5FFF32001F0E2FF53
:101BE000002001F0DFFFE62001F0E8FF112001F006
:101BF000D9FF002001F0D6FF342001F0D3FF0020F0
:101C000001F0D0FF562001F0CDFF002001F0CAFF07
:101C1000762001F0C7FF002001F0C4FF772001F01B
:101C2000C1FF002001F0BEFF662001F0BBFF0020D5
:101C300001F0B8FF882001F0B5FF002001F0B2FFED
:101C4000992001F0AFFF002001F0ACFFBB2001F0B4
:101C5000A9FF002001F0A6FF992001F0A3FF0020BA
:101C600001F0A0FF662001F09DFF002001F09AFF27
:101C7000552001F097FF002001F094FF552001F05E
:101C800091FF002001F08EFF452001F08BFF002026
:101C900001F088FF432001F085FF002001F082FF62
:101CA000442001F07FFF002001F07CFFE72001F0DD
:101CB00085FF322001F076FF002001F073FF5520F0
:101CC00001F070FF002001F06DFF762001F06AFF47
:101CD000002001F067FF662001F064FF002001F0A2
:101CE00061FF672001F05EFF002001F05BFF6720CD
:101CF00001F058FF002001F055FF872001F052FF4E
:101D0000002001F04FFF992001F04CFF002001F06E
:101D100049FFBB2001F046FF002001F043FF99205E
:101D200001F040FF002001F03DFF772001F03AFF75
:101D3000002001F037FF442001F034FF002001F0C3
:101D400031FF562001F02EFF002001F02BFF232051
:101D500001F028FF002001F025FF332001F022FFD1
:101D6000002001F01FFF452001F01CFF002001F0C2
:101D700019FFE82001F022FF002001F013FF0020EE
:101D800001F010FF992001F00DFF002001F00AFF83
:101D9000872001F007FF002001F004FF882001F0F8
:101DA00001FF002001F0FEFE772001F0FBFE002085
:101DB00001F0F8FE662001F0F5FE002001F0F2FED1
:101DC000882001F0EFFE002001F0ECFEAA2001F0D7
:101DD000E9FE002001F0E6FEBB2001F0E3FE00205A
:101DE00001F0E0FE992001F0DDFE002001F0DAFEB6
:101DF000662001F0D7FE002001F0D4FE552001F04E
:101E0000D1FE002001F0CEFE552001F0CBFE0020D7
:101E100001F0C8FE442001F0C5FE002001F0C2FE22
:101E2000442001F0BFFE002001F0BCFE552001F06F
:101E3000B9FE002001F0B6FEE92001F0BFFEAA20A5
:101E400001F0B0FE002001F0ADFE002001F0AAFE7E
:101E5000002001F0A7FE002001F0B0FEAA2001F052
:101E6000A1FECF2001F0AAFE002001F09BFE002081
:101E700001F098FE002001F095FE002001F092FE96
:101E8000002001F08FFE002001F08CFE002001F008
:101E900089FE002001F086FE002001F083FE002074
:101EA00001F080FE002001F07DFE002001F07AFEAE
:101EB000002001F077FE002001F074FE002001F008
:101EC00071FE002001F06EFE002001F06BFEF0209C
:101ED00001F074FE002001F065FE502001F062FE6A
:101EE000002001F05FFE002001F05CFE002001F008
:101EF00059FEF32001F062FE002001F053FEF920AC
:101F000001F05CFE062001F04DFE102001F04AFEBB
:101F1000292001F047FE002001F044FE3A2001F0A4
:101F20004DFE552001F03EFE112001F047FE6420D9
:101F3000FEF7CEFC292001F041FE352001F03EFEE7
:101F4000002001F02FFE512001F038FEFF2001F0AB
:101F500029FE532001F032FE2C2001F023FE5520F3
:101F600001F02CFE822001F01DFE2C2001F026FE47
:101F700010BD10B555214FF4704001F035FEAA2177
:101F80004FF2010001F030FE52214FF2020001F049
:101F90002BFE08214FF2030001F026FE01214FF233
:101FA000040001F021FE0D214FF4304001F01CFE31
:101FB0000D214BF2010001F017FE0D214BF2020042
:101FC00001F012FE34214FF4364001F00DFE3421B1
:101FD0004BF2016001F008FE34214BF2026001F087
:101FE00003FE0D214FF4314001F0FEFD0D214BF2B7
:101FF000011001F0F9FD0D214BF2021001F0F4FD8A
:1020000034214FF4374001F0EFFD34214BF20170E1
:1020100001F0EAFD34214BF2027001F0E5FD0021F0
:102020004FF4324001F0E0FD00214BF2012001F0BD
:10203000DBFD00214BF2022001F0D6FD24214FF4FC
:10204000384001F0D1FD24214BF6010001F0CCFD18
:1020500024214BF6020001F0C7FD01214FF43F405F
:1020600001F0C2FD0F214FF4334001F0BDFD0F21FF
:102070004BF2013001F0B8FD0F214BF2023001F0BC
:10208000B3FD34214FF4394001F0AEFD34214BF65D
:10209000011001F0A9FD34214BF6021001F0A4FD5E
:1020A00008214FF4354001F09FFD08214BF201500B
:1020B00001F09AFD08214BF2025001F095FD032139
:1020C0004FF4424001F090FD24214FF43A4001F0DA
:1020D0008BFD24214BF6012001F086FD24214BF6D7
:1020E000022001F081FD00214FF43C4001F07CFD15
:1020F00078214BF6014001F077FD00214BF60240BC
:1021000001F072FD00214FF43D4001F06DFD78219A
:102110004BF6015001F068FD00214BF6025001F032
:1021200063FD00214FF43E4001F05EFD64214BF65B
:10213000016001F059FD00214FF4514001F054FDC0
:1021400033214DF2011001F04FFD00214DF202103C
:1021500001F04AFD34214DF2031001F045FD00214C
:102160004DF2041001F040FD3A214DF2051001F04E
:102170003BFD00214DF2061001F036FD4A214DF2E3
:10218000071001F031FD00214DF2081001F02CFD87
:102190005C214DF2091001F027FD00214DF20A10DB
:1021A00001F022FD81214DF20B1001F01DFD0021F7
:1021B0004DF20C1001F018FDA6214DF20D1001F0AA
:1021C00013FD00214DF20E1001F00EFDE5214DF240
:1021D0000F1001F009FD01214DF2101001F004FD76
:1021E00013214DF2111001F0FFFC01214DF21210EC
:1021F00001F0FAFC54214DF2131001F0F5FC01211D
:102200004DF2141001F0F0FC82214DF2151001F096
:10221000EBFC01214DF2161001F0E6FCCA214DF253
:10222000171001F0E1FC02214DF2181001F0DCFC66
:1022300000214DF2191001F0D7FC02214DF21A10C5
:1022400001F0D2FC01214DF21B1001F0CDFC022166
:102250004DF21C1001F0C8FC34214DF21D1001F0AC
:10226000C3FC02214DF21E1001F0BEFC67214DF2AD
:102270001F1001F0B9FC02214DF2201001F0B4FC56
:1022800084214DF2211001F0AFFC02214DF2221009
:1022900001F0AAFCA4214DF2231001F0A5FC0221BB
:1022A0004DF2241001F0A0FCB7214DF2251001F0F1
:1022B0009BFC02214DF2261001F096FCCF214DF23D
:1022C000271001F091FC02214DF2281001F08CFC46
:1022D000DE214DF2291001F087FC02214DF22A1077
:1022E00001F082FCF2214DF22B1001F07DFC022165
:1022F0004DF22C1001F078FCFE214DF22D1001F072
:1023000073FC03214DF22E1001F06EFC10214DF2F2
:102310002F1001F069FC03214DF2301001F064FC34
:1023200033214DF2311001F05FFC03214DF23210E8
:1023300001F05AFC6D214DF2331001F055FC0021E3
:102340004FF4524001F050FC33214DF2012001F0D6
:102350004BFC00214DF2022001F046FC34214DF2ED
:10236000032001F041FC00214DF2042001F03CFC6F
:102370003A214DF2052001F037FC00214DF20620F4
:1023800001F032FC4A214DF2072001F02DFC002122
:102390004DF2082001F028FC5C214DF2092001F0EB
:1023A00023FC00214DF20A2001F01EFC81214DF298
:1023B0000B2001F019FC00214DF20C2001F014FC5F
:1023C000A6214DF20D2001F00FFC00214DF20E2050
:1023D00001F00AFCE5214DF20F2001F005FC01217E
:1023E0004DF2102001F000FC13214DF2112001F0FC
:1023F000FBFB01214DF2122001F0F6FB54214DF2BE
:10240000132001F0F1FB01214DF2142001F0ECFB4F
:1024100082214DF2152001F0E7FB01214DF216203B
:1024200001F0E2FBCA214DF2172001F0DDFB022191
:102430004DF2182001F0D8FB00214DF2192001F0D7
:10244000D3FB02214DF21A2001F0CEFB01214DF207
:102450001B2001F0C9FB02214DF21C2001F0C4FB3E
:1024600034214DF21D2001F0BFFB02214DF21E2050
:1024700001F0BAFB67214DF21F2001F0B5FB0221EC
:102480004DF2202001F0B0FB84214DF2212001F01B
:10249000ABFB02214DF2222001F0A6FBA4214DF25C
:1024A000232001F0A1FB02214DF2242001F09CFB2E
:1024B000B7214DF2252001F097FB02214DF2262095
:1024C00001F092FBCF214DF2272001F08DFB02217C
:1024D0004DF2282001F088FBDE214DF2292001F089
:1024E00083FB02214DF22A2001F07EFBF2214DF206
:1024F0002B2001F079FB02214DF22C2001F074FB1E
:10250000FE214DF22D2001F06FFB03214DF22E2014
:1025100001F06AFB10214DF22F2001F065FB032131
:102520004DF2302001F060FB33214DF2312001F0FB
:102530005BFB03214DF2322001F056FB6D214DF281
:10254000332001F051FB00214FF4534001F04CFBCC
:1025500033214DF2013001F047FB00214DF20230F2
:1025600001F042FB34214DF2033001F03DFB00212C
:102570004DF2043001F038FB3A214DF2053001F004
:1025800033FB00214DF2063001F02EFB4A214DF2C3
:10259000073001F029FB00214DF2083001F024FB47
:1025A0005C214DF2093001F01FFB00214DF20A3091
:1025B00001F01AFB81214DF20B3001F015FB0021D7
:1025C0004DF20C3001F010FBA6214DF20D3001F060
:1025D0000BFB00214DF20E3001F006FBE5214DF220
:1025E0000F3001F001FB01214DF2103001F0FCFA37
:1025F00013214DF2113001F0F7FA01214DF21230A2
:1026000001F0F2FA54214DF2133001F0EDFA0121FC
:102610004DF2143001F0E8FA82214DF2153001F04C
:10262000E3FA01214DF2163001F0DEFACA214DF233
:10263000173001F0D9FA02214DF2183001F0D4FA26
:1026400000214DF2193001F0CFFA02214DF21A307B
:1026500001F0CAFA01214DF21B3001F0C5FA022146
:102660004DF21C3001F0C0FA34214DF21D3001F062
:10267000BBFA02214DF21E3001F0B6FA67214DF28D
:102680001F3001F0B1FA02214DF2203001F0ACFA16
:1026900084214DF2213001F0A7FA02214DF22230BF
:1026A00001F0A2FAA4214DF2233001F09DFA02219B
:1026B0004DF2243001F098FAB7214DF2253001F0A7
:1026C00093FA02214DF2263001F08EFACF214DF21D
:1026D000273001F089FA02214DF2283001F084FA06
:1026E000DE214DF2293001F07FFA02214DF22A302D
:1026F00001F07AFAF2214DF22B3001F075FA022145
:102700004DF22C3001F070FAFE214DF22D3001F027
:102710006BFA03214DF22E3001F066FA10214DF2D2
:102720002F3001F061FA03214DF2303001F05CFAF4
:1027300033214DF2313001F057FA03214DF232309E
:1027400001F052FA6D214DF2333001F04DFA0021C3
:102750004FF4544001F048FA33214DF2014001F0AA
:1027600043FA00214DF2024001F03EFA34214DF2CD
:10277000034001F039FA00214DF2044001F034FA2F
:102780003A214DF2054001F02FFA00214DF20640AA
:1027900001F02AFA4A214DF2074001F025FA002102
:1027A0004DF2084001F020FA5C214DF2094001F0A1
:1027B0001BFA00214DF20A4001F016FA81214DF278
:1027C0000B4001F011FA00214DF20C4001F00CFA1F
:1027D000A6214DF20D4001F007FA00214DF20E4006
:1027E00001F002FAE5214DF20F4001F0FDF901215F
:1027F0004DF2104001F0F8F913214DF2114001F0B3
:10280000F3F901214DF2124001F0EEF954214DF29D
:10281000134001F0E9F901214DF2144001F0E4F90F
:1028200082214DF2154001F0DFF901214DF21640F1
:1028300001F0DAF9CA214DF2174001F0D5F9022171
:102840004DF2184001F0D0F900214DF2194001F08D
:10285000CBF902214DF21A4001F0C6F901214DF2E7
:102860001B4001F0C1F902214DF21C4001F0BCF9FE
:1028700034214DF21D4001F0B7F902214DF21E4006
:1028800001F0B2F967214DF21F4001F0ADF90221CC
:102890004DF2204001F0A8F984214DF2214001F0D1
:1028A000A3F902214DF2224001F09EF9A4214DF23C
:1028B000234001F099F902214DF2244001F094F9EE
:1028C000B7214DF2254001F08FF902214DF226404B
:1028D00001F08AF9CF214DF2274001F085F902215C
:1028E0004DF2284001F080F9DE214DF2294001F03F
:1028F0007BF902214DF22A4001F076F9F2214DF2E6
:102900002B4001F071F902214DF22C4001F06CF9DD
:10291000FE214DF22D4001F067F903214DF22E40CA
:1029200001F062F910214DF22F4001F05DF9032111
:102930004DF2304001F058F933214DF2314001F0B1
:1029400053F903214DF2324001F04EF96D214DF261
:10295000334001F049F900214FF4554001F044F9AA
:1029600033214DF2015001F03FF900214DF20250A8
:1029700001F03AF934214DF2035001F035F900210C
:102980004DF2045001F030F93A214DF2055001F0BA
:102990002BF900214DF2065001F026F94A214DF2A3
:1029A000075001F021F900214DF2085001F01CF907
:1029B0005C214DF2095001F017F900214DF20A5047
:1029C00001F012F981214DF20B5001F00DF90021B7
:1029D0004DF20C5001F008F9A6214DF20D5001F016
:1029E00003F900214DF20E5001F0FEF8E5214DF201
:1029F0000F5001F0F9F801214DF2105001F0F4F8F8
:102A000013214DF2115001F0EFF801214DF2125057
:102A100001F0EAF854214DF2135001F0E5F80121DC
:102A20004DF2145001F0E0F882214DF2155001F002
:102A3000DBF801214DF2165001F0D6F8CA214DF213
:102A4000175001F0D1F802214DF2185001F0CCF8E6
:102A500000214DF2195001F0C7F802214DF21A5031
:102A600001F0C2F801214DF21B5001F0BDF8022126
:102A70004DF21C5001F0B8F834214DF21D5001F018
:102A8000B3F802214DF21E5001F0AEF867214DF26D
:102A90001F5001F0A9F802214DF2205001F0A4F8D6
:102AA00084214DF2215001F09FF802214DF2225075
:102AB00001F09AF8A4214DF2235001F095F802217B
:102AC0004DF2245001F090F8B7214DF2255001F05D
:102AD0008BF802214DF2265001F086F8CF214DF2FD
:102AE000275001F081F802214DF2285001F07CF8C6
:102AF000DE214DF2295001F077F802214DF22A50E3
:102B000001F072F8F2214DF22B5001F06DF8022124
:102B10004DF22C5001F068F8FE214DF22D5001F0DD
:102B200063F803214DF22E5001F05EF810214DF2B2
:102B30002F5001F059F803214DF2305001F054F8B4
:102B400033214DF2315001F04FF803214DF2325054
:102B500001F04AF86D214DF2335001F045F80021A3
:102B60004FF4564001F040F833214DF2016001F07E
:102B70003BF800214DF2026001F036F834214DF2AD
:102B8000036001F031F800214DF2046001F02CF8EF
:102B90003A214DF2056001F027F800214DF2066060
:102BA00001F022F84A214DF2076001F01DF80021E2
:102BB0004DF2086001F018F85C214DF2096001F057
:102BC00013F800214DF20A6001F00EF881214DF258
:102BD0000B6001F009F800214DF20C6001F004F8DF
:102BE000A6214DF20D6000F0FFFF00214DF20E60B6
:102BF00000F0FAFFE5214DF20F6000F0F5FF012132
:102C00004DF2106000F0F0FF13214DF2116000F062
:102C1000EBFF01214DF2126000F0E6FF54214DF26E
:102C2000136000F0E1FF01214DF2146000F0DCFFC1
:102C300082214DF2156000F0D7FF01214DF21660A0
:102C400000F0D2FFCA214DF2176000F0CDFF022143
:102C50004DF2186000F0C8FF00214DF2196000F03D
:102C6000C3FF02214DF21A6000F0BEFF01214DF2B8
:102C70001B6000F0B9FF02214DF21C6000F0B4FFB0
:102C800034214DF21D6000F0AFFF02214DF21E60B5
:102C900000F0AAFF67214DF21F6000F0A5FF02219E
:102CA0004DF2206000F0A0FF84214DF2216000F081
:102CB0009BFF02214DF2226000F096FFA4214DF20D
:102CC000236000F091FF02214DF2246000F08CFFA0
:102CD000B7214DF2256000F087FF02214DF22660FA
:102CE00000F082FFCF214DF2276000F07DFF02212E
:102CF0004DF2286000F078FFDE214DF2296000F0EF
:102D000073FF02214DF22A6000F06EFFF2214DF2B6
:102D10002B6000F069FF02214DF22C6000F064FF8F
:102D2000FE214DF22D6000F05FFF03214DF22E6079
:102D300000F05AFF10214DF22F6000F055FF0321E3
:102D40004DF2306000F050FF33214DF2316000F061
:102D50004BFF03214DF2326000F046FF6D214DF232
:102D6000336000F041FF55214FF4704000F03CFF0C
:102D7000AA214FF2010000F037FF52214FF202006A
:102D800000F032FF08214FF2030000F02DFF002178
:102D90004FF2040000F028FFCC214FF4314000F046
:102DA00023FF00214BF2011000F01EFF05214FF41C
:102DB000364000F019FF70214FF4374000F014FF47
:102DC00070214BF2017000F00FFF01214FF43840E9
:102DD00000F00AFF03214BF6010000F005FF03217C
:102DE0004BF6020000F000FF03214BF6030000F059
:102DF000FBFE02214FF43C4000F0F6FE00214BF6B2
:102E0000014000F0F1FE00214BF6024000F0ECFE24
:102E1000D0214FF4494000F0E7FE02214CF60110AA
:102E200000F0E2FE50214CF6021000F0DDFE5021D1
:102E30004CF6031000F0D8FE50214CF6041000F0C0
:102E4000D3FE00214FF4545000F0CEFE55214FF434
:102E5000685000F0C9FE4FF4885000F0AFFE7820B3
:102E6000FDF752FD4FF4245000F0A8FE10BD10B540
:102E7000E22000F0A3FE1D2000F094FE022000F0EE
:102E800091FE042000F08EFE6420FDF73DFDE02061
:102E900000F094FE012000F085FE0A20FDF718FDE9
:102EA000E02000F08BFE032000F07CFE0C20FDF7FC
:102EB0000FFD012000F082FE0A20FDF709FDE6204B
:102EC00000F07CFE2F2000F06DFEFF2000F06AFE77
:102ED000FF2000F067FEB02000F070FE202000F020
:102EE00061FE002000F05EFE032000F05BFE40F279
:102EF0001F3000F057FE012000F054FE40F2DF10BA
:102F000000F050FE002000F04DFEB42000F056FE10
:102F1000042000F047FE40F21F4000F043FE002076
:102F200000F040FE2E2000F03DFE002000F03AFEB2
:102F3000002000F037FE002000F034FE002000F0FA
:102F400031FEB62000F03AFE022000F02BFE4FF4D6
:102F5000037000F027FE002000F024FE172000F090
:102F600021FE152000F01EFE002000F01BFE0020B8
:102F700000F018FEF02000F021FE032000F012FE09
:102F8000292000F01BFED02000F018FE002000F0E9
:102F900009FEBE2000F012FE052000F003FEFE2018
:102FA00000F000FE012000F0FDFD002000F0FAFD21
:102FB000002000F0F7FD002000F0F4FDB82000F044
:102FC000FDFD032000F0EEFD012000F0EBFDBA2036
:102FD00000F0F4FD012000F0E5FD10BD10B511205A
:102FE00000F0ECFD7820FDF773FC362000F0E6FDE4
:102FF000002000F0D7FD3A2000F0E0FD052000F0B1
:10300000D1FDB22000F0DAFD0C2000F0CBFD0C2049
:1030100000F0C8FD002000F0C5FD332000F0C2FD27
:10302000332000F0BFFDB72000F0C8FD352000F0D0
:10303000B9FDBB2000F0C2FD322000F0B3FDC0207E
:1030400000F0BCFD0C2000F0ADFDC22000F0B6FD8C
:10305000012000F0A7FDC32000F0B0FD102000F01B
:10306000A1FDC42000F0AAFD202000F09BFDC62099
:1030700000F0A4FD0F2000F095FDD02000F09EFD93
:10308000A42000F08FFDA12000F08CFDE02000F0D6
:1030900095FDD02000F086FD002000F083FD022089
:1030A00000F080FD072000F07DFD0A2000F07AFD91
:1030B000282000F077FD322000F074FD442000F05D
:1030C00071FD422000F06EFD062000F06BFD0E2029
:1030D00000F068FD122000F065FD142000F062FD94
:1030E000172000F05FFDE12000F068FDD02000F027
:1030F00059FD002000F056FD022000F053FD07208E
:1031000000F050FD0A2000F04DFD282000F04AFD9F
:10311000312000F047FD542000F044FD472000F02E
:1031200041FD0E2000F03EFD1C2000F03BFD17206D
:1031300000F038FD1B2000F035FD1E2000F032FDB0
:103140002A2000F03BFD002000F02CFD002000F0C4
:1031500029FD002000F026FDEF2000F023FD2B20AC
:1031600000F02CFD002000F01DFD002000F01AFDF5
:10317000012000F017FD3F2000F014FD292000F091
:103180001DFD10BD1CB500BFE748806940F480708C
:10319000E549886100BF00BF0846806940F0200013
:1031A000886100BF00BF0846806940F02000886148
:1031B00000BF00BF0846806940F48070886100BF8E
:1031C00000BF0846806940F00800886100BF0846DB
:1031D000806940F0600088610846406940F4807072
:1031E00048610120032100230222CDE900100103E0
:1031F000CE4800F021FF0120032100230222CDE967
:1032000000102021CA4800F017FF012003210023ED
:103210000222CDE900101021C54800F00DFF012069
:10322000032100230222CDE900100146BF4800F02F
:1032300003FF0120032100230246CDE900100146CF
:10324000BC4800F0F9FE0120032100230222CDE951
:1032500000104CF20371B64800F0EEFE012003218D
:1032600000230222CDE900104FF68071B24800F031
:10327000E3FE00204FF020418861C861AF4908603B
:103280004FF02040806940F480504FF02041886129
:103290000846806940F4804088610846806940F0B3
:1032A000100088610846C069C8610846C069C861E5
:1032B0000846C06940F47060C861A0480068C1F861
:1032C0001C019E480068C1F81C010846D0F81C018A
:1032D00040F40070C1F81C010846806940F001000C
:1032E00088610846806940F000408861944800F099
:1032F00031F9D32000F062FC00F03EF9914988805A
:1033000000F03AF98F49888000F036F98D498880BD
:10331000084680884FF6FF7101EA002089498880BD
:1033200000F02AF987498988084386498880084639
:10333000808849F2413188427DD0042000F03EFC73
:1033400000F01AF97F49888000F016F97D498880DD
:1033500000F012F97B498880084680884FF6FF719B
:1033600001EA00207749888000F006F975498988CC
:103370000843744988800846808848F25251884240
:1033800003D147F289706F4988806E48808847F280
:1033900089718842D0D0D42000F010FC00F0ECF805
:1033A0006849888000F0E8F86649888000F0E4F811
:1033B00064498880084680884FF6FF7101EA002042
:1033C0006049888000F0D8F85E49898808435D49E3
:1033D00088800846808845F21031884262D05521A5
:1033E0004FF4704000F000FCAA214FF2010000F001
:1033F000FBFB52214FF2020000F0F6FB08214FF2D6
:10340000030000F0F1FB01214FF2040000F0ECFB9F
:103410004FF4454000F0D2FB00F0AEF849498880F7
:10342000084680884FF6FF7101EA002045498880F0
:103430004CF2015000E035E000F0C0FB00F09CF8D9
:103440004049898808433F4988800520FDF740FAB4
:103450003C48808845F21051884223D0A12000F0DA
:10346000ADFB00F089F83749888000F085F83549D0
:103470008880084680884FF6FF7101EA00203149B4
:10348000888000F079F82F49898808432D49888081
:103490000846808845F26171884203D141F6631085
:1034A000284988802748818827A0FCF727FF2548DE
:1034B000808847F28971884202D1FFF78FFD25E0AD
:1034C0002048808849F24131884202D1FDF7C2FC90
:1034D0001CE01C48808845F21031884202D1FDF77B
:1034E000CFFD13E01748808845F21051884202D181
:1034F000FEF73FFD0AE01348808841F663118842D9
:1035000004D1FFF7B4FC642000F022FB0020FDF79B
:103510004DFB01221146074800F082FD4FF6FF7077
:10352000FDF72AFB1CBD00000010024000200140F6
:1035300000140140000C0140001801401C0100A0D3
:10354000FFFF0100E00000204C43442049443A259D
:10355000780D0A0000BF011EA0F10100FBD17047E9
:1035600010B50246012000E050430B1EA1F10104FA
:10357000E1B2F9D110BD000008B50220FFF7EAFF63
:10358000024800880090BDF8000008BD0008006CEB
:10359000F0B505460024002788488079012805D128
:1035A0008648808841F66311884208D18348807933
:1035B000F0B98248808841F66311884218D1082DFD
:1035C00015D2DFE805F00406080A0C0E10120625D5
:1035D0000DE007250BE0042509E0052507E001259E
:1035E00005E0002503E0032501E0022500BF00BF40
:1035F000082D1CD2DFE805F00406090C0F1215187F
:1036000000BF14E044F0800411E044F040040EE0F8
:1036100044F0C0040BE044F0200408E044F06004EF
:1036200005E044F0A00402E044F0E00400BF00BF65
:1036300036276248808845F21051884200D13F0207
:103640005E48808849F24131884205D05B488088D5
:1036500047F28971884201D144F008042146384676
:1036600000F0C2FA5548808841F6631188421DD0A7
:1036700004F0200068B151480088504949888842C8
:1036800014DA4E48068840884C490880084646802F
:103690000CE04A48008849494988884206DD474885
:1036A0000688408845490880084646804348808807
:1036B00045F21051884252D14049488900F07EFAC3
:1036C000002000F06FFA3D494989491C88B200F09A
:1036D00075FA002000F066FA38494989891C88B2D9
:1036E00000F06CFA35490988491EC1F30F2000F03B
:1036F00059FA32494989C91C88B200F05FFA2F494A
:103700000978491EC8B200F04DFA2C49888900F0AA
:1037100055FA002000F046FA28498989491C88B2E8
:1037200000F04CFA002000F03DFA24498989891CF8
:1037300088B200F043FA21494988491EC1F30F209D
:1037400000F030FA1D498989C91C88B200F036FAA8
:103750001A498978491EC8B200F024FA2DE01749A9
:10376000488900F02BFA002000F01CFA002000F03D
:1037700019FA12490988491EC1F30F2000F012FA04
:103780000E490978491EC8B200F00CFA0B49888925
:1037900000F014FA002000F005FA002000F002FA10
:1037A00006494988491EC1F30F2000F0FBF903497F
:1037B0008978491EC8B200F0F5F9F0BDE00000209C
:1037C00010B502460C464548808841F66311884290
:1037D00047D142488079A8B940480088401E801AE5
:1037E00082B23E49488900F0E9F9002000F0DAF998
:1037F000002000F0D7F9101200F0D4F9D0B200F098
:10380000D1F916E03549488900F0D8F9101200F0D6
:10381000C9F9D0B200F0C6F930490988491EC1F390
:103820000F2000F0BFF92D490978491EC8B200F0F9
:10383000B9F92A49888900F0C1F9201200F0B2F9DB
:10384000E0B200F0AFF925494988491EC1F30F20C5
:1038500000F0A8F921498978491EC8B200F0A2F900
:103860003AE01E48808845F21051884220D11B4919
:10387000488900F0A3F9101200F094F9174949891A
:10388000491C88B200F09AF9D0B200F08BF91349C4
:10389000888900F093F9201200F084F90F49898992
:1038A000491C88B200F08AF9E0B200F07BF913E01D
:1038B0000A49488900F082F9101200F073F9D0B279
:1038C00000F070F90549888900F078F9201200F0BD
:1038D00069F9E0B200F066F910BD0000E0000020D8
:1038E0002DE9FC4F80460E4615461C46B346002087
:1038F000019000902046E31704EB5373DB10214640
:103900004FEAE47C04EB5C7C4FEAEC0CA4EBCC0CBF
:10391000BCF1000F02D04FF0010C01E04FF0000CA1
:103920006344224604EBD27C4FEA6C0C03FB0CF39D
:10393000DBB20193A5F12000C5B20C2C06D0102CEF
:103940000BD0182C0ED0202C18D112E005EB45001E
:103950002D4901EB8000009012E02C4800EB05108F
:1039600000900DE005EBC500294901EB80000090B7
:1039700006E0284800EB8510009001E0BDE8FC8FD0
:1039800000BF00273AE0009810F807904FF0000AB7
:103990002EE009F0800028B1314640460C9AFDF730
:1039A00049FA07E00B9828B91B483146026840469F
:1039B000FDF740FA4FEA49604FEA1069701C86B281
:1039C00016484088B04200DCD8E7A6EB0B00A042C6
:1039D0000AD15E4608F101001FFA80F80F480088FE
:1039E000404500DCCAE706E00AF1010000F0FF0AEA
:1039F000BAF1080FCDDB00BF781CC7B2019887422F
:103A0000C1DB00BFBAE7000084450008F8490008A0
:103A1000E84F0008445D000810000020E00000208E
:103A20002DE9FC4F04460D4690469946DDE90C7A97
:103A30000B9E04F0FF0B08EB04001FFA80F809EB63
:103A400005001FFA80F917E0444502DB5C46A8191F
:103A500085B24D4500DB15E00020CDE9000A3A783B
:103A6000334629462046FFF73BFF304606EBD07130
:103A700004EB61018CB27F1C38787E2802DC387838
:103A80002028E1DA00BFBDE8FC8F2DE9FF4F85B0AB
:103A9000064693461F46DDE91389129C00200490D8
:103AA000002550E0781B401EC1B20A20FFF758FDE8
:103AB000BBFBF0F00A21B0FBF1F201FB120A049803
:103AC00060BB781EA84229DDBAF1000F24D108F0AE
:103AD000800080B108F0010004EBD471491001FBB3
:103AE0000561CDE90009039488B223463022069986
:103AF000FFF7F6FE0FE008F0010004EBD471491067
:103B000001FB0561CDE90009039488B22346202218
:103B10000699FFF7E5FE14E00120049008F001008B
:103B200004EBD471491001FB0561CDE90009039450
:103B300088B20AF13001CAB223460699FFF7D0FED7
:103B400000BF681CC5B2BD42ACDB09B0BDE8F08F58
:103B50002DE9F0470446BE2000F030F8052000F0C3
:103B600021F8204600F0FDFB07464FF066320C4B73
:103B700000F00AFC054600F0C7FB1FFA80F9484632
:103B800000F010F8012000F00DF8FF2000F00AF816
:103B9000002000F007F8002000F004F8BDE8F087EE
:103BA0006666044001B5BDF800000090BDF8000055
:103BB0000149088008BD00000008006C01B5BDF88F
:103BC00000000090BDF800000149088008BD000019
:103BD000FE07006C02480089024908807047000017
:103BE000E0000020FE07006C024A1080921C118049
:103BF00070470000FE07006C1CB500BF15488069C7
:103C000040F008001349886100BF00BF0846806982
:103C100040F04000886100BF012000900023024670
:103C2000202101900C4800F007FA012000900023A9
:103C3000024620210190094800F0FEF901222021CE
:103C4000054800F0EDF901222021044800F0E8F9D0
:103C50001CBD000000100240000C01400018014093
:103C600088B0092000F0B6FA4820FCF71DFE4FF49A
:103C7000E131482000F0E6FAFFF7BEFFFFF782FAD5
:103C8000FCF7F0FEFCF7F5FD0790012500200690FB
:103C900081460026804605900027002421E100206F
:103CA000FCF71AFF8246012D04D0022D51D0032DBE
:103CB0004ED1F4E009F101001FFA80F90698D8B955
:103CC0004FF6FF70FCF758FF002086A11022CDE9C7
:103CD00000210290854AB2F802B00BEBDB72511062
:103CE000824A1288049202EBD27250102023F022F2
:103CF000FFF796FE0120069008217D4800F088F924
:103D0000504525D10798FCF799FD681CC5B20026DF
:103D10000020784908804846FCF75CFB4FF6FF70AE
:103D2000FCF72AFF7149088800EBD0714FEA61085F
:103D30000127062005906D49088800EBD0714C10D2
:103D40000020069041F61F4142F20F70FCF752FD31
:103D5000C5E00120FCF7C0FE8246002066A11022CB
:103D6000CDE9002102906148028810230021084615
:103D7000FFF756FE701C86B24FF47A70FCF7C4FD54
:103D800000201022CDE90020134632461021029077
:103D9000FFF77BFE00201022CDE9002013460290A1
:103DA0005448028820210020FFF76FFEFCF718FA24
:103DB00090FBF7F107FB11004C490988A1EB070BB9
:103DC0000BEBDB7100EB61001FFA80F8642096FBBF
:103DD000F0F100FB116028B144480088B84201DDD1
:103DE000781C87B2B8F1020F02DA4FF0020809E03E
:103DF0003E480088801E404504DA3C480088801E0A
:103E00001FFA80F84FF6FF730222F0212046FCF7DC
:103E100065FFBAF1010F06D0BAF1020F08D0BAF16E
:103E2000030F1DD10CE0042C01DDA01E84B217E0AD
:103E30002E480088001FA04201DDA01C84B20FE0C4
:103E400007E00120FCF748FE012802D1681EC5B238
:103E500004E00120FCF740FE0228F2D100BF00BFC1
:103E600000BF4FF478430222F0212046FCF736FFD2
:103E70001E48428823460599079800F045F808B186
:103E8000681CC5B2962096FBF0F100FB116028B9C2
:103E90001648018842460798FCF799FC1FE0134832
:103EA0004088032190FBF1F080B204900F48008815
:103EB00090FBF1F01FFA80FB002011A118221023C3
:103EC000CDE900210290F02258460499FFF7A8FDA1
:103ED0000020FCF701FE022800D1012500BF00BF31
:103EE00000BFDCE67374617274000000E000002023
:103EF0000018014000000020496E2047616D6500F8
:103F000057415354454400002DE9F04705460E46FD
:103F100017469946286884681FE0F1B24B464FF671
:103F2000FF722046FCF72CFD6088401C6080F1B2D7
:103F30004B4600222046FCF723FD10B10120BDE8CE
:103F4000F0876188781D814206DDA046A46841465D
:103F50002846FCF7FFFC00E0A4686868A042DCD1BA
:103F60000020ECE710B5024600210020264B1B681C
:103F700043F48033244C23600AE000BF224B1B68CB
:103F800003F400331BB1B1F5004F00D904E0491C24
:103F90004FF6F0739942F0D300BF4FF6F073994299
:103FA00001D301202FE04FF48063174C6360921E11
:103FB00023465B6843EA8243636023465B6843F4BD
:103FC000803363601023114C236023461B6843F049
:103FD000020323600C4B1B6843F080730A4C236080
:103FE00000BF094B1B685B0E002BFAD0064B5B68C9
:103FF00043F00203044C636000BF034B5B68C3F3F0
:104000008103022BF9D110BD0010024000200240B4
:1040100002469068084008B1012070470020FCE784
:1040200002F001031BB103690B43036103E0036961
:1040300043EA0143036170472DE9F04F0E461D46E8
:10404000DDE909C4002100278846002300BF64E0A1
:104050004FF0010909FA01F706EA0708B8455BD1F4
:104060000023012A01D0022A0AD10CF0030305F033
:10407000010943EA8903A2F1010943EAC90318E0EF
:10408000BAB90CB9042314E00823D0F80C904FF00F
:10409000010A0AFA01FA29EA0A09C0F80C90D0F8D4
:1040A0000CA004F0010909FA01F94AEA090AC0F86A
:1040B0000CA0072916D8D0F800904FEA810B4FF0DA
:1040C0000F0A0AFA0BFA29EA0A09C0F80090D0F898
:1040D00000904FEA810A03FA0AFA49EA0A09C0F88D
:1040E000009019E0D0F80490A1F1080A4FEA8A0B79
:1040F0004FF00F0A0AFA0BFA29EA0A09C0F80490ED
:10410000D0F80490A1F1080A4FEA8A0A03FA0AFAE1
:1041100049EA0A09C0F80490491C102998D3BDE85F
:10412000F08F00002DE9F0410746884614461D46F1
:10413000284600F033F8C5F1040007FA00F60F2016
:10414000284100EA0800064306F00F06E21704EBD8
:10415000D2625211920002F1E022D2F800212146EF
:10416000E31704EBD3635B11A4EB431C012303FAB5
:104170000CF31A432046E31704EBD3635B119B0057
:1041800003F1E023C3F800210348005D40EA061074
:1041900001490855BDE8F08100E400E0014607232D
:1041A00023EA01021202054B18684FF6FF0318407C
:1041B000034B18431043014B186070470CED00E0AF
:1041C0000000FA054A0A52020243014B1A60704786
:1041D00008ED00E010B50446002017490861C860EA
:1041E0001420486100208861C8610846006840F0DA
:1041F0000100086008464068104908400E494860C0
:10420000084600680E4908400B49086008460068E7
:1042100020F4802008600846406820F4FE004860D2
:104220004FF41F0088602046FFF79CFE00214FF0EE
:104230000060FFF7C7FF10BD001002400000FFF84C
:10424000FFFFF6FE7CB506460C4600BF2A48806993
:1042500040F004002849886100BF00BF084680691B
:1042600040F00400886100BF00BF0846806940F448
:104270008040886100BF0120032100230222CDE994
:10428000001041021D48FFF7D7FE01200321002343
:104290001A46CDE9001081021848FFF7CDFE1848F4
:1042A000704300EB5400B0FBF4F5164805600020A5
:1042B0001449091D0860084600680860084600683F
:1042C00040F0080008600846006840F004000860FC
:1042D0000846006840F020000860022325220321E0
:1042E0000846FFF71FFF0748001D006840F4005014
:1042F0000449091D08607CBD00100240000801400F
:1043000040420F00083801404FEA1153A3F5806383
:10431000D3F11E03A8BFD3F1200C08DB4FF00042FD
:1043200042EAC12252EA505232FA03F0704709427F
:104330000BD4102BC4BF0020704703F5787CBCF170
:10434000FF3F05D04FF0FF3070474FF0000070473F
:1043500070B500F0C3F800BF499224800020704778
:10436000F0E7B0FA80F310FA03F10AD0C3F11D03AD
:1043700003F580634FEA41504FEA035202EBD1212B
:1043800070474FF000007047DFF848C170B51CEA75
:10439000111E1EBF1CEA13159EEA0C0F95EA0C0FA6
:1043A00000F06F8081EA030423EA4C134EEAD47EC6
:1043B00021EA4C1141F4801143F48013AE44A1FB77
:1043C000024CA0FB0365AEF17F7E361955EB0C0560
:1043D000A1FB034C4CF10003A0FB021C16EB0C06E6
:1043E000654153F10003094218BF46F0010613F47A
:1043F000007F0BD14FEA03314FEA0530340341EA25
:10440000155140EA16506FF003020AE04FEAC3214B
:104410004FEAC520F40241EA555140EA56506FF088
:10442000020202EB2E4201EB025585EACE710AD060
:104430005FEA440C18BF24F0004450F1000041F141
:10444000000120EAD47040F2FE7C624500D270BDCB
:10445000A84214BF4FF080444FF04044002E08BFE4
:104460000024BEF1806FA8BFA1F1C041BDE870403B
:1044700080F282804FF0000001F1C04101F0004164
:1044800070479EEA0C0F0CEA131518BF95EA0C0F43
:1044900006D04FF0000081EA030E0EF0004170BD1F
:1044A00000F01CF88900013E00F007B800F009B8E0
:1044B0004FEA430C5FEA5C5C08D081EA030100F03C
:1044C0005BB84FEA410C5FEA5C5CF6D14FF000004C
:1044D000014970470000FF070000F87F0EF1020E4F
:1044E0002EF0030E5EF8046B364205D4012A43EB2E
:1044F000030515F5001F12D8012841EB010C1CF52E
:10450000001F0CD80ED14FEAD17C15F5001F0CEB23
:104510004C0C0CF1020C08BF4CEBD37C04E04FF0C8
:10452000080C01E04FEAD37C0CEB4C0526FA05F6AB
:1045300006F00706B6F1040C06D20EEB860CBDE8B9
:1045400070404CF0010C6047DFE80CF0090B0202F0
:104550004FF000414FF00000A1F5002170BD194659
:104560001046012851EB010418BFD4F5001484BF94
:10457000002001F0004170BD0808A0F500114FEACD
:104580003101704700000000000000000000000042
:10459000000000003F40000000000000000030006C
:1045A000400030004000000009000BC03D000BC07F
:1045B0003D00090018C024407FE022403180000007
:1045C000180024C01B000D803240018003801C4075
:1045D00027401C80074000401000600000000000E1
:1045E000000000000000000000001F80204040206C
:1045F0000000402020401F8000000000090006004D
:104600001F80060009000000040004003F80040031
:104610000400000000100060000000000000000026
:104620000400040004000400040000000000004036
:104630000000000000000000002001C0060038005B
:10464000400000001F802040204020401F800000CC
:10465000000010403FC000400000000018C0214092
:104660002240244018400000108020402440244074
:104670001B80000002000D0011003FC0014000003F
:104680003C80244024402440238000001F8024409C
:1046900024403440038000003000200027C0380050
:1046A000200000001B802440244024401B80000088
:1046B0001C0022C0224022401F8000000000000099
:1046C000084000000000000000000000046000003E
:1046D00000000000000004000A001100208040409B
:1046E000090009000900090009000000000040401D
:1046F000208011000A00040018002000234024003C
:10470000180000001F802040274029401F40000063
:10471000004007C039000F0001C0004020403FC0EA
:10472000244024401B8000001F8020402040204067
:104730003080000020403FC0204020401F8000000B
:1047400020403FC024402E4030C0000020403FC0E9
:1047500024402E00300000000F0010802040224036
:104760003380020020403FC0040004003FC02040CE
:10477000204020403FC0204020400000006020201A
:1047800020203FC02000200020403FC024400B00DC
:1047900030C0204020403FC020400040004000C0CA
:1047A0003FC03C0003C03C003FC0000020403FC071
:1047B0000C4023003FC020001F80204020402040AC
:1047C0001F80000020403FC024402400180000004B
:1047D0001F802140214020E01FA0000020403FC05A
:1047E0002440260019C0004018C024402440224024
:1047F00031800000300020403FC0204030000000E9
:1048000020003F80004000403F80200020003E000C
:1048100001C0070038002000380007C03C0007C076
:1048200038000000204039C0060039C02040000098
:104830002000384007C0384020000000304021C030
:104840002640384020C00000000000007FE04020EB
:1048500040200000000070000C00038000400000B9
:104860000000402040207FE0000000000000200009
:104870004000200000000000001000100010001098
:1048800000100010000000004000000000000000C8
:10489000000002800540054003C0004020003FC0EA
:1048A00004400440038000000000038004400440F2
:1048B0000640000000000380044024403FC0004048
:1048C0000000038005400540034000000000044054
:1048D0001FC0244024402000000002E00550055085
:1048E0000650042020403FC00440040003C00040A4
:1048F0000000044027C0004000000000001000102D
:10490000041027E00000000020403FC001400700E5
:1049100004C00440204020403FC000400040000050
:1049200007C0040007C0040003C00000044007C023
:104930000440040003C00040000003800440044021
:1049400003800000041007F00450044003800000BE
:10495000000003800440045007F00010044007C02A
:10496000024004000400000000000640054005402D
:1049700004C00000000004001F800440004000004C
:10498000040007800040044007C000400400070006
:1049900004C0018006000400060001C0070001C039
:1049A00006000000044006C0010006C004400000EC
:1049B0000410071004E00180060004000000044019
:1049C00005C00640044000000000000004007BE039
:1049D00040200000000000000000FFF00000000088
:1049E000000040207BE00400000000004000800048
:1049F00040002000200040000000000000000000F7
:104A000000000000000000000000000000001FCCBB
:104A1000000C0000000000000000080030006000F2
:104A20000800300060000000022003FC1E2002206D
:104A300003FC1E200220000000000E1811043FFF9E
:104A400010840C78000000000F0010840F3800C0A4
:104A5000077818840078000000780F8410C41124AF
:104A60000E9800E400840008080068007000000050
:104A7000000000000000000000000000000007E04F
:104A800018182004400200000000400220041818FA
:104A900007E00000000000000240024001800FF02B
:104AA00001800240024000000080008000800FF87A
:104AB00000800080008000000001000D000E00005A
:104AC0000000000000000000000000800080008066
:104AD00000800080008000800000000C000C0000BE
:104AE0000000000000000000000000060018006048
:104AF0000180060018002000000007F008081004DC
:104B00001004080807F000000000080408041FFC57
:104B1000000400040000000000000E0C101410241B
:104B2000104411840E0C000000000C181004110435
:104B3000110412880C700000000000E0032004241F
:104B400008241FFC0024000000001F98108411049A
:104B50001104108810700000000007F0088811048C
:104B6000110418880070000000001C00100010FCE8
:104B700013001C001000000000000E3811441084C7
:104B8000108411440E38000000000700088C104407
:104B90001044088807F00000000000000000030C2B
:104BA000030C0000000000000000000000010106EE
:104BB0000000000000000000000000800140022012
:104BC0000410080810040000022002200220022025
:104BD0000220022002200000000010040808041037
:104BE000022001400080000000000E001200100CA6
:104BF000106C10800F00000003E00C1813E4142464
:104C000017C4082807D000000004003C03C41C405F
:104C1000074000E4001C000410041FFC11041104F0
:104C200011040E880070000003E00C18100410043A
:104C3000100410081C10000010041FFC10041004C5
:104C40001004080807F0000010041FFC11041104F0
:104C500017C410040818000010041FFC11041100F0
:104C600017C010000800000003E00C181004100426
:104C700010441C780040000010041FFC10840080C9
:104C8000008010841FFC10040000100410041FFC9E
:104C900010041004000000000003000110011001C6
:104CA0001FFE10001000000010041FFC1104038000
:104CB0001464181C1004000010041FFC10040004ED
:104CC00000040004000C000010041FFC1F0000FC86
:104CD0001F001FFC1004000010041FFC0C04030044
:104CE00000E010181FFC100007F008081004100462
:104CF0001004080807F0000010041FFC1084108046
:104D0000108010800F00000007F0081810241024F5
:104D1000101C080A07F2000010041FFC1104110007
:104D200011C011300E0C000400000E1C1104108480
:104D3000108410441C3800001800100010041FFCE0
:104D4000100410001800000010001FF810040004E8
:104D5000000410041FF8100010001E0011E0001CD9
:104D6000007013801C0010001FC0103C00E01F00EA
:104D700000E0103C1FC000001004180C163401C0E5
:104D800001C01634180C100410001C00130400FCA1
:104D900013041C00100000000804101C1064108490
:104DA00013041C04101800000000000000007FFE27
:104DB0004002400240020000000030000C0003806E
:104DC0000060001C0003000000004002400240029E
:104DD0007FFE0000000000000000000020004000F6
:104DE000400040002000000000010001000100011F
:104DF000000100010001000100004000400020000F
:104E000000000000000000000000009801240144A0
:104E10000144014400FC000410001FFC0088010450
:104E20000104008800700000000000700088010488
:104E300001040104008800000000007000880104E3
:104E4000010411081FFC0004000000F801440144A3
:104E50000144014400C800000000010401040FFCEB
:104E60001104110411001800000000D601290129C5
:104E7000012901C90106000010041FFC0084010083
:104E80000100010400FC000400000104190419FCE5
:104E90000004000400000000000000030001010104
:104EA000190119FE0000000010041FFC002400403E
:104EB00001B4010C010400000000100410041FFCE8
:104EC0000004000400000000010401FC01040100D2
:104ED00001FC0104010000FC010401FC008401004C
:104EE0000100010400FC0004000000F801040104BA
:104EF0000104010400F80000010101FF0085010424
:104F000001040088007000000000007000880104A7
:104F10000104010501FF00010104010401FC0084FA
:104F20000104010001800000000000CC01240124E4
:104F3000012401240198000000000100010007F88D
:104F40000104010400000000010001F80004000455
:104F50000004010801FC0004010001800170000C44
:104F6000001001600180010001F0010C003001C05F
:104F70000030010C01F0010000000104018C0074FC
:104F80000170018C01040000010101810171000E1A
:104F9000001801600180010000000184010C01344F
:104FA00001440184010C000000000000000000002A
:104FB00001003EFC40024002000000000000000032
:104FC000FFFF0000000000000000400240023EFC25
:104FD0000100000000000000000060008000800070
:104FE0004000400020002000000000000000000001
:104FF00000000000000000000000000000000000B1
:1050000000000000000000000000000000000000A0
:1050100000000000000000000000000F80380FFEBC
:10502000380F803800000000000000000000000081
:105030000000000000000100000600000C00003825
:1050400000003100000600000C00003800003000B5
:10505000000000000000000061800067F807F98090
:105060000061800061800061800061800067F80756
:10507000F98000618000000000000000000001C015
:10508000E003E0F00630080418081FFFFE040E08D5
:105090000787F00381E000000000000001F0000637
:1050A0000C00040408060C7001F9C0000E00003B5F
:1050B000E000EC18070808040C180003E0000000EA
:1050C0000001E00007F003F818041C0804170807A3
:1050D000E1D003C0E00023B0003C0800200800003D
:1050E000100000000000000100003100003200004C
:1050F0001C00000000000000000000000000000094
:10510000000000000000000000000000000000009F
:1051100000000000000000007F0001FFC00780F0D9
:105120000C00181000042000020000000000002005
:1051300000021000040C00180780F001FFC0007F7F
:10514000000000000000000000000000000000005F
:10515000000000004200006600006600003C000005
:10516000180003FFC0001800003C00006600006645
:1051700000004200000000000800000800000800D5
:1051800000080000080001FFC0000800000800003F
:1051900008000008000008000000000000010000F6
:1051A0003100003200001C00000000000000000080
:1051B00000000000000000000000000000000000EF
:1051C00008000008000008000008000008000008AF
:1051D00000000800000800000800000800000000AF
:1051E0000000000000000000380000380000380017
:1051F00000000000000000000000000000000000AF
:105200000000000000000000000600001C0000700C
:10521000000180000E0000380000C0000700001CE4
:105220000000300000000000000000007F8001FF4F
:10523000E003807006001804000804000806001847
:1052400003807001FFE0007F80000000000000008C
:10525000000001000801000801000803FFF807FF33
:10526000F80000080000080000080000000000002E
:1052700000000001C03802C058040098040118045E
:105280000218040418061C1803F81801E0F80000BE
:105290000000000000000001C0E003C0F0040008AE
:1052A00004080804080806180803F41801E7F000C9
:1052B00001E0000000000000000000000300000DFD
:1052C0000000110000610000810803010807FFF8D9
:1052D0000FFFF800010800010800000000000000B6
:1052E00000E007FCD00608080610080610080610A3
:1052F00008061838060FF00607C00000000000007E
:10530000000000003F8001FFE00384300208180421
:105310001008041008041008071810030FF0000705
:10532000C000000000000000000003C000070000F3
:105330000600000600F80607F806180006E0000759
:10534000000006000000000000000001E1E003F79B
:10535000F0063410041808041808040C08040C089B
:1053600006161803F3F001C1E00000000000000081
:10537000F80003FC300306380402080402080402A3
:10538000080404100308F001FFC0007F00000000C3
:10539000000000000000000000000000000000000D
:1053A0007038007038007038000000000000000005
:1053B00000000000000000000000000000000000ED
:1053C00000000000301A00301C0000000000000047
:1053D00000000000000000000000000000000008C5
:1053E0000000140000220000410000808001004005
:1053F0000200200400100800080000000000000067
:1054000021000021000021000021000021000021D6
:105410000000210000210000210000210000000008
:105420000000000000000800080400100200200135
:1054300000400080800041000022000014000008AD
:105440000000000000000003C00004C000040000D1
:10545000080038080F380808380810000C3000071A
:10546000E00003C000000000000000003F8000FFDB
:10547000E0038070020F1006708804C0880483085F
:10548000047F8802C09003012000FE400000080055
:1054900000180001F8003E0801C20007020007E200
:1054A0000000FE00001FC80001F8000038000008DE
:1054B00004000807FFF807FFF804080804080804B8
:1054C000080804080806180803F41801E7F00001AA
:1054D000E0000000000000003F8001FFE00380705A
:1054E0000200180400080400080400080400100664
:1054F00000200780C000000004000807FFF807FF35
:10550000F804000804000804000804001802001051
:1055100003807001FFE0007F8000000004000807A6
:10552000FFF807FFF804080804080804080804083E
:1055300008043E080400080600180100600000008E
:1055400004000807FFF807FFF8040808040800042F
:105550000800040800043E00060000060000018068
:1055600000000000000000003F8001FFE0038070A9
:105570000600180400080402080402080203F007E9
:1055800083F000020000020004000807FFF807FF94
:10559000F8040808000800000800000800000800DF
:1055A00004080807FFF807FFF804000800000000DF
:1055B000000004000804000804000807FFF807FFC3
:1055C000F8040008040008040008000000000000BF
:1055D00000000000000600000700000104000104B4
:1055E000000104000307FFFE07FFFC0400000400A5
:1055F0000004000004000807FFF807FFF8040C0887
:10560000001800003E0004C7800503C80600F80427
:10561000003804001800000804000807FFF807FF1E
:10562000F804000800000800000800000800000856
:1056300000000800001800006000000004000807D7
:10564000FFF807800807FC00007FC00003F8000790
:10565000C000780007800807FFF807FFF80400087B
:1056600004000807FFF807000803C00000E000007E
:105670003800001E000007000001C00400F007FF12
:10568000F8040000000000007F8001FFE00380704C
:105690000600180400080400080600180300300182
:1056A000FFE0007F8000000004000807FFF807FF0C
:1056B000F8040408040400040400040400040400C2
:1056C000060C0003F80001F00000000000000000DC
:1056D0007F8001FFE00380700600880400880400DA
:1056E000C806003C03003E01FFE6007F8400000086
:1056F00004000807FFF807FFF8040808040800047E
:105700000C00040F00040BC00610F003F03801E099
:105710000800000800000001E0F803F03006301037
:10572000041808041808040C08040C0802061802DF
:1057300007F00781E000000001800006000004007F
:105740000004000004000807FFF807FFF804000841
:1057500004000004000006000001800004000007AF
:10576000FFE007FFF0040018000008000008000038
:105770000800000800000804001007FFE004000013
:1057800004000006000007E00007FE00041FE00020
:1057900001F80000380001E0043E0007C0000600E8
:1057A0000004000004000007E00007FFC0041FF829
:1057B0000007C007F80007FF80043FF80007C00497
:1057C000F8000700000400000000000400080600C4
:1057D0001807C07805F1C8003E00001F800463E888
:1057E0000780F80600180400080000000400000606
:1057F000000007800007E008047C08001FF800078D
:10580000F800180804E00807000006000004000083
:105810000000000100080600380400F80403E80452
:105820000F08047C0805F00807C0080700180400EA
:105830006000000000000000000000000000000008
:105840000000003FFFFE2000022000022000022096
:10585000000220000200000000000000000008001C
:105860000007000000C0000038000006000001C072
:1058700000003000000E00000100000000000000E9
:105880000000200002200002200002200002200070
:10589000023FFFFE000000000000000000000000CA
:1058A00000000000000000000008000010000030B0
:1058B0000000200000300000100000080000000080
:1058C00000000000000001000001000001000001D4
:1058D00000000100000100000100000100000100C3
:1058E00000010000010000010000000000000000B5
:1058F0000020000020000010000010000000000048
:105900000000000000000000000000000000000097
:1059100000F00019F8001B180022080026080024D7
:1059200008002410003FF8001FF8000008000018CD
:1059300000000004000007FFF80FFFF00018180037
:105940001008002008002008003018001FF0000F89
:10595000C00000000000000007C0001FF000183069
:10596000002008002008002008003C08001C10004F
:1059700000600000000000000000000007C0001FE1
:10598000F00038180020080020080020080410103B
:1059900007FFF80FFFF000001000000000000000FB
:1059A00000000007C0001FF0001230002218002283
:1059B00008002208003208001E10000E200000001F
:1059C00000000000200000200800200801FFF8036C
:1059D000FFF8062008042008042008072000030020
:1059E0000000000000000000000E000E6E001FF31B
:1059F0000031B10020B10020B1003191001F13002F
:105A00002E1E00200E00300000000004000807FFDA
:105A1000F80FFFF800100800200000200000200808
:105A2000003FF8001FF80000080000000000000020
:105A30000000002008002008002008063FF8063F6C
:105A4000F800000800000800000800000000000046
:105A5000000000000000000003000003002001001F
:105A60002001002003063FFE063FFC00000000006E
:105A70000000000000000004000807FFF80FFFF816
:105A8000000188000300002FC00038F80020380013
:105A900020080000080000000000000000000400D2
:105AA0000804000804000807FFF80FFFF8000008CA
:105AB00000000800000800000000000000200800AE
:105AC0003FF8003FF8001008002000003FF8003FBA
:105AD000F8001008002000003FF8003FF800000820
